:020000040800F2
:10000000000002202D890008958000089B800008D0
:10001000A1800008A7800008AD8000080000000053
:10002000000000000000000000000000B380000895
:10003000C180000800000000CF800008DD800008BB
:100040007589000875890008758900087589000898
:100050007589000875890008758900087589000888
:100060007589000875890008758900087589000878
:100070007589000875890008758900087589000868
:100080007589000875890008758900087589000858
:100090007589000875890008758900087589000848
:1000A0007589000875890008758900087589000838
:1000B0001181000875890008758900087589000894
:1000C0007589000875890008758900087589000818
:1000D0007589000875890008758900087589000808
:1000E00075890008758900087589000875890008F8
:1000F00075890008758900087589000875890008E8
:1001000075890008758900087589000875890008D7
:100110007589000875890008258100083981000863
:100120004D810008758900087589000875890008E7
:1001300075890008000000000000000075890008B3
:100140007589000875890008758900087589000897
:100150007589000875890008758900087589000887
:100160007589000875890008758900087589000877
:10017000758900087589000875890008000000006D
:100180000000000075890008000000000000000069
:100190007589000800000000000000007589000853
:1001A0000000000000000000000000007589000849
:1001B0007589000875890008758900087589000827
:0401C0007589000835
:1001D00010B5054C237833B9044B13B10448AFF381
:1001E00000800123237010BD1401002000000000D6
:1001F000383A010808B5034B1BB103490348AFF374
:10020000008008BD0000000018010020383A0108F5
:1002100081F0004102E000BF83F0004330B54FEAB7
:1002200041044FEA430594EA050F08BF90EA020F24
:100230001FBF54EA000C55EA020C7FEA645C7FEAB7
:10024000655C00F0E2804FEA5454D4EB5555B8BFDA
:100250006D420CDD2C4480EA020281EA030382EA4B
:10026000000083EA010180EA020281EA0303362DDD
:1002700088BF30BD11F0004F4FEA01314FF4801CB0
:100280004CEA113102D0404261EB410113F0004FC2
:100290004FEA03334CEA133302D0524263EB430379
:1002A00094EA050F00F0A780A4F10104D5F1200E17
:1002B0000DDB02FA0EFC22FA05F2801841F1000172
:1002C00003FA0EF2801843FA05F359410EE0A5F146
:1002D00020050EF1200E012A03FA0EFC28BF4CF077
:1002E000020C43FA05F3C01851EBE37101F000452D
:1002F00007D54FF0000EDCF1000C7EEB00006EEB3A
:100300000101B1F5801F1BD3B1F5001F0CD34908C3
:100310005FEA30004FEA3C0C04F101044FEA44521A
:1003200012F5800F80F09A80BCF1004F08BF5FEAA1
:10033000500C50F1000041EB045141EA050130BD81
:100340005FEA4C0C404141EB0101013C28BFB1F593
:10035000801FE9D291F0000F04BF01460020B1FADE
:1003600081F308BF2033A3F10B03B3F120020CDAB1
:100370000C3208DD02F1140CC2F10C0201FA0CF08F
:1003800021FA02F10CE002F11402D8BFC2F1200CF4
:1003900001FA02F120FA0CFCDCBF41EA0C019040AA
:1003A000E41AA2BF01EB0451294330BD6FEA0404F3
:1003B0001F3C1CDA0C340EDC04F11404C4F12002DE
:1003C00020FA04F001FA02F340EA030021FA04F3F0
:1003D00045EA030130BDC4F10C04C4F1200220FA47
:1003E00002F001FA04F340EA0300294630BD21FA85
:1003F00004F0294630BD94F0000F83F4801306BF4B
:1004000081F480110134013D4EE77FEA645C18BF3E
:100410007FEA655C29D094EA050F08BF90EA020FD5
:1004200005D054EA000C04BF1946104630BD91EACD
:10043000030F1EBF0021002030BD5FEA545C05D1D0
:100440004000494128BF41F0004130BD14F580040F
:100450003CBF01F5801130BD01F0004545F0FE4183
:1004600041F470014FF0000030BD7FEA645C1ABFB8
:10047000194610467FEA655C1CBF0B46024650EAEF
:10048000013406BF52EA033591EA030F41F400211B
:1004900030BD00BF90F0000F04BF0021704730B5A1
:1004A0004FF4806404F132044FF000054FF0000176
:1004B00050E700BF90F0000F04BF0021704730B537
:1004C0004FF4806404F1320410F0004548BF40420C
:1004D0004FF000013EE700BF42004FEAE2014FEA61
:1004E00031014FEA02701FBF12F07F4393F07F4F3C
:1004F00081F06051704732F07F4208BF704793F03F
:100500007F4F04BF41F40021704730B54FF4607451
:1005100001F0004521F000411CE700BF50EA010254
:1005200008BF704730B54FF000050AE050EA0102FD
:1005300008BF704730B511F0004502D5404261EB6D
:1005400041014FF4806404F132045FEA915C3FF4AE
:10055000D8AE4FF003025FEADC0C18BF03325FEA4B
:10056000DC0C18BF033202EBDC02C2F1200300FAFC
:1005700003FC20FA02F001FA03FE40EA0E0021FA21
:1005800002F11444BDE600BF70B54FF0FF0C4CF40F
:10059000E06C1CEA11541DBF1CEA135594EA0C0FC1
:1005A00095EA0C0F00F0DEF82C4481EA030621EAFC
:1005B0004C5123EA4C5350EA013518BF52EA033537
:1005C00041F4801143F4801338D0A0FB02CE4FF0E9
:1005D0000005E1FB02E506F00042E0FB03E54FF019
:1005E0000006E1FB03569CF0000F18BF4EF0010E11
:1005F000A4F1FF04B6F5007F64F5407404D25FEA0D
:100600004E0E6D4146EB060642EAC62141EA5551BF
:100610004FEAC52040EA5E504FEACE2EB4F1FD0C01
:1006200088BFBCF5E06F1ED8BEF1004F08BF5FEA7F
:10063000500E50F1000041EB045170BD06F0004631
:1006400046EA010140EA020081EA0301B4EB5C04DE
:10065000C2BFD4EB0C0541EA045170BD41F48011D6
:100660004FF0000E013C00F3AB8014F1360FDEBFFB
:10067000002001F0004170BDC4F10004203C35DAD7
:100680000C341BDC04F11404C4F1200500FA05F35A
:1006900020FA04F001FA05F240EA020001F00042FB
:1006A00021F0004110EBD37021FA04F642EB060171
:1006B0005EEA430E08BF20EAD37070BDC4F10C049B
:1006C000C4F1200500FA04F320FA05F001FA04F25F
:1006D00040EA020001F0004110EBD37041F100014B
:1006E0005EEA430E08BF20EAD37070BDC4F1200556
:1006F00000FA05F24EEA020E20FA04F301FA05F2BE
:1007000043EA020321FA04F001F0004121FA04F265
:1007100020EA020000EBD3705EEA430E08BF20EA35
:10072000D37070BD94F0000F0FD101F0004640006F
:1007300041EB010111F4801F08BF013CF7D041EAF1
:10074000060195F0000F18BF704703F000465200F5
:1007500043EB030313F4801F08BF013DF7D043EAC6
:100760000603704794EA0C0F0CEA135518BF95EA7C
:100770000C0F0CD050EA410618BF52EA4306D1D103
:1007800081EA030101F000414FF0000070BD50EA22
:10079000410606BF1046194652EA430619D094EAAC
:1007A0000C0F02D150EA013613D195EA0C0F05D196
:1007B00052EA03361CBF104619460AD181EA0301EA
:1007C00001F0004141F0FE4141F470014FF00000A2
:1007D00070BD41F0FE4141F4780170BD70B54FF03D
:1007E000FF0C4CF4E06C1CEA11541DBF1CEA1355BD
:1007F00094EA0C0F95EA0C0F00F0A7F8A4EB05049F
:1008000081EA030E52EA03354FEA013100F0888095
:100810004FEA03334FF0805545EA131343EA12635E
:100820004FEA022245EA111545EA10654FEA002613
:100830000EF000419D4208BF964244F1FD0404F5CC
:10084000407402D25B084FEA3202B61A65EB030528
:100850005B084FEA32024FF480104FF4002CB6EBE5
:10086000020E75EB030E22BFB61A754640EA0C0065
:100870005B084FEA3202B6EB020E75EB030E22BFA5
:10088000B61A754640EA5C005B084FEA3202B6EBE6
:10089000020E75EB030E22BFB61A754640EA9C00A5
:1008A0005B084FEA3202B6EB020E75EB030E22BF75
:1008B000B61A754640EADC0055EA060E18D04FEA33
:1008C000051545EA16754FEA06164FEAC30343EAD3
:1008D00052734FEAC2025FEA1C1CC0D111F4801FA0
:1008E0000BD141EA00014FF000004FF0004CB6E799
:1008F00011F4801F04BF01430020B4F1FD0C88BF38
:10090000BCF5E06F3FF6AFAEB5EB030C04BFB6EB42
:10091000020C5FEA500C50F1000041EB045170BD35
:100920000EF0004E4EEA113114EB5C04C2BFD4EB62
:100930000C0541EA045170BD41F480114FF0000EE6
:10094000013C90E645EA060E8DE60CEA135594EA62
:100950000C0F08BF95EA0C0F3FF43BAF94EA0C0F65
:100960000AD150EA01347FF434AF95EA0C0F7FF4DA
:1009700025AF104619462CE795EA0C0F06D152EA2E
:1009800003353FF4FDAE1046194622E750EA410612
:1009900018BF52EA43067FF4C5AE50EA41047FF423
:1009A0000DAF52EA43057FF4EBAE12E74FF0FF3C88
:1009B00006E000BF4FF0010C02E000BF4FF0010C59
:1009C0004DF804CD4FEA410C7FEA6C5C4FEA430CD2
:1009D00018BF7FEA6C5C1BD001B050EA410C0CBF21
:1009E00052EA430C91EA030F02BF90EA020F002083
:1009F000704710F1000F91EA030F58BF994208BFEA
:100A000090422CBFD8176FEAE37040F001007047A6
:100A10004FEA410C7FEA6C5C02D150EA013C07D1FD
:100A20004FEA430C7FEA6C5CD6D152EA033CD3D048
:100A30005DF8040B704700BF8446104662468C4642
:100A40001946634600E000BF01B5FFF7B7FF002875
:100A500048BF10F1000F01BD4DF808EDFFF7F4FF9E
:100A60000CBF012000205DF808FB00BF4DF808ED29
:100A7000FFF7EAFF34BF012000205DF808FB00BF4C
:100A80004DF808EDFFF7E0FF94BF012000205DF86E
:100A900008FB00BF4DF808EDFFF7CEFF94BF012023
:100AA00000205DF808FB00BF4DF808EDFFF7C4FF1C
:100AB00034BF012000205DF808FB00BF4FEA41026F
:100AC00012F5001215D211D56FF47873B3EB6252A0
:100AD00012D94FEAC12343F0004343EA505311F0C7
:100AE000004F23FA02F018BF404270474FF0000059
:100AF000704750EA013005D111F0004008BF6FF097
:100B0000004070474FF00000704700BF4A0011D20C
:100B100012F5001211D20DD56FF47873B3EB625257
:100B20000ED44FEAC12343F0004343EA505323FA63
:100B300002F070474FF00000704750EA013002D1D8
:100B40004FF0FF3070474FF0000070474FEA41020E
:100B5000B2F1E04324BFB3F5001CDCF1FE5C0DD91B
:100B600001F0004C4FEAC0024CEA5070B2F1004F65
:100B700040EB830008BF20F00100704711F0804F68
:100B800021D113F13872BCBF01F00040704741F42D
:100B900080114FEA5252C2F11802C2F1200C10FA31
:100BA0000CF320FA02F018BF40F001004FEAC12315
:100BB0004FEAD32303FA0CFC40EA0C0023FA02F3B9
:100BC0004FEA4303CCE77FEA625307D150EA01338F
:100BD0001EBF4FF0FE4040F44000704701F000405F
:100BE00040F0FE4040F40000704700BF53B94AB9DE
:100BF000002908BF00281CBF4FF0FF314FF0FF3025
:100C000000F074B9ADF1080C6DE904CE00F006F8FF
:100C1000DDF804E0DDE9022304B070472DE9F04778
:100C2000089D04468E46002B4DD18A42944669D9D0
:100C3000B2FA82F252B101FA02F3C2F1200120FAB3
:100C400001F10CFA02FC41EA030E94404FEA1C4801
:100C5000210CBEFBF8F61FFA8CF708FB16E341EAFD
:100C6000034306FB07F199420AD91CEB030306F183
:100C7000FF3080F01F81994240F21C81023E6344A4
:100C80005B1AA4B2B3FBF8F008FB103344EA034448
:100C900000FB07F7A7420AD91CEB040400F1FF335D
:100CA00080F00A81A74240F207816444023840EA9A
:100CB0000640E41B00261DB1D4400023C5E90043D3
:100CC0003146BDE8F0878B4209D9002D00F0EF8056
:100CD0000026C5E9000130463146BDE8F087B3FA89
:100CE00083F6002E4AD18B4202D3824200F2F98071
:100CF000841A61EB030301209E46002DE0D0C5E974
:100D0000004EDDE702B9FFDEB2FA82F2002A40F0BF
:100D10009280A1EB0C014FEA1C471FFA8CFE0126C2
:100D2000200CB1FBF7F307FB131140EA01410EFB66
:100D300003F0884208D91CEB010103F1FF3802D20D
:100D4000884200F2CB804346091AA4B2B1FBF7F007
:100D500007FB101144EA01440EFB00FEA64508D92A
:100D60001CEB040400F1FF3102D2A64500F2BB8067
:100D70000846A4EB0E0440EA03409CE7C6F12007B6
:100D8000B34022FA07FC4CEA030C20FA07F401FAFC
:100D900006F31C43F9404FEA1C4900FA06F3B1FB85
:100DA000F9F8200C1FFA8CFE09FB181140EA0141EA
:100DB00008FB0EF0884202FA06F20BD91CEB010187
:100DC00008F1FF3A80F08880884240F28580A8F1DF
:100DD00002086144091AA4B2B1FBF9F009FB101131
:100DE00044EA014100FB0EFE8E4508D91CEB0101CF
:100DF00000F1FF346CD28E456AD90238614440EA72
:100E00000840A0FB0294A1EB0E01A142C846A646F1
:100E100056D353D05DB1B3EB080261EB0E0101FA7A
:100E200007F722FA06F3F1401F43C5E900710026D7
:100E30003146BDE8F087C2F12003D8400CFA02FC2D
:100E400021FA03F3914001434FEA1C471FFA8CFE3D
:100E5000B3FBF7F007FB10360B0C43EA064300FB2D
:100E60000EF69E4204FA02F408D91CEB030300F1CB
:100E7000FF382FD29E422DD9023863449B1B89B282
:100E8000B3FBF7F607FB163341EA034106FB0EF30B
:100E90008B4208D91CEB010106F1FF3816D28B42B8
:100EA00014D9023E6144C91A46EA004638E72E4684
:100EB000284605E70646E3E61846F8E64B45A9D27C
:100EC000B9EB020864EB0C0E0138A3E74646EAE7EB
:100ED000204694E74046D1E7D0467BE7023B614499
:100EE00032E7304609E76444023842E7704700BF02
:100EF000034613F8012B002AFBD1181A013870475A
:100F000001F0FF01102A2BDB10F0070F08D010F8BA
:100F1000013B013A8B422DD010F0070F42B3F6D1BE
:100F2000F0B441EA012141EA014122F007047FF0D7
:100F300000070023F0E80256083C85EA010586EA2E
:100F4000010685FA47F5A3FA87F586FA47F6A5FA6A
:100F500087F68EB9EED1F0BC01F0FF0102F0070276
:100F600032B110F8013B013A83EA010313B1F8D121
:100F70000020704701387047002D06BF3546033802
:100F8000073815F0010F07D1013015F4807F02BF3B
:100F9000013015F4C03F0130F0BC0138704700BF8C
:100FA00080B586B002AF0346FB7140233B73FB79EB
:100FB0007B7307F10C020123009302237C21034879
:100FC0000CF032FB00BF1037BD4680BD84470020C7
:100FD00080B586B002AF0346FB7100233B73FB79FB
:100FE0007B7307F10C020123009302237C21034849
:100FF0000CF01AFB00BF1037BD4680BD84470020AF
:1010000080B584B002AF4FF46053BB803A1D01231A
:10101000009302237C2120480CF006FB0346002BA2
:1010200034D1012010F08CF93920FFF7D1FF0120D5
:1010300010F086F91420FFF7CBFF012010F080F9A3
:101040007020FFF7C5FF012010F07AF95620FFF756
:10105000BFFF012010F074F96C20FFF7B9FFC82022
:1010600010F06EF93820FFF7B3FF012010F068F997
:101070000C20FFF7ADFF012010F062F90120FFF70F
:10108000A7FF022010F05CF9012300E000231846BE
:101090000837BD4680BD00BF8447002080B500AF43
:1010A0000449002000F0D8F80249012000F0D4F8EB
:1010B00000BF80BD503A010880B584B000AF034640
:1010C0000A46FB801346BB808023FB73FB88DAB2A1
:1010D000FB7BDBB21344DBB2FB73BB88012B05D176
:1010E000FB7BDBB24033DBB2FB7310E0BB88022B2F
:1010F00005D1FB7BDBB21433DBB2FB7307E0BB88AB
:10110000032B04D1FB7BDBB25433DBB2FB73FB7BE1
:10111000DBB21846FFF75CFF00BF1037BD4680BD4D
:1011200080B500AF344B1B889BB2013B032B5BD8CF
:1011300001A252F823F000BF491100086111000814
:1011400077110008B31100082C4B1B889BB2002BB1
:101150004ED02A4B00221A80274B02221A8047E0E9
:10116000274B00221A8000210020FFF7A5FF224B09
:1011700003221A803DE0224B1B889AB2214BA3FB2D
:10118000021319090B461B010B44D31A9BB2002B07
:101190000BD11B4B1B889BB21A4AA2FB03231B09D2
:1011A0009BB219460020FFF787FF134B04221A80D9
:1011B0001FE0134B1B889BB25A1C91B2104A11803E
:1011C0001A46114B9B5CDBB21846FFF7E9FE0C4B4D
:1011D0001B889BB2212B03D9074B01221A8008E000
:1011E000054B03221A8004E0034B01221A8000E021
:1011F00000BF00BF80BD00BF000000204E010020E6
:101200004C010020F1F0F0F03001002080B483B0F8
:1012100000AF03460A46FB711346BB71FB79102BE6
:101220000FD8BB79012B0ED8FB799AB2BB799BB250
:10123000194609010B449BB213449AB2054B1A801C
:1012400002E000BF00E000BF0C37BD465DF8047B44
:10125000704700BF4A0100200EB480B587B000AFD0
:101260000346FB710023FB81FB79002B04D1002195
:101270000020FFF7CBFF06E0FB79012B03D1012112
:101280000020FFF7C3FF07F128033B613A69796A41
:10129000194810F051FF03469BB2FB81FB899BB2BA
:1012A000002B20D0144B7B6115E07B695A1C7A61BE
:1012B000124A128892B2511C88B2104908801B78D9
:1012C000D9B20F4B99540D4B1B889BB2212B02D9DD
:1012D0000A4B00221A807B691B78DBB2002BE4D119
:1012E000084B01221A80FB899BB218461C37BD4669
:1012F000BDE8804003B07047380100204A0100205B
:10130000300100204E01002080B588B004AF0346B4
:10131000FB710123FB73FB799AB2FB7B9BB20A2121
:101320000291019307F10C0300930123512104481A
:101330000CF072FB3B7B18461037BD4680BD00BFEA
:101340008447002080B588B004AF03463960FB7144
:101350000223FB73FB799AB2FB7B9BB20A210291B9
:1013600001933B6800930123512103480CF054FB87
:1013700000BF1037BD4680BD8447002080B588B0CF
:1013800004AF03460A46FB711346BB71BB793B733E
:101390000123FB73FB799AB2FB7B9BB20A2102917A
:1013A000019307F10C0300930123502103480CF033
:1013B00039FA00BF1037BD4680BD00BF844700200A
:1013C00080B500AF0020FFF79FFF0346A02B20D180
:1013D00000213D20FFF7D2FF01210720FFF7CEFFBC
:1013E00017210820FFF7CAFF00210A20FFF7C6FFD8
:1013F00000210720FFF7C2FF82213B20FFF7BEFF3D
:1014000005213D20FFF7BAFF32200FF099FF01239D
:1014100000E00023184680BD80B584B000AF07F11E
:10142000080319461820FFF78DFF7B7A9BB21B0239
:101430009AB23B7A9BB213449BB21BB2BB80B7F902
:10144000043007EE903AF8EEE77A9FED0F7AC7EE98
:10145000876A16EE900AFFF73FF809A3D3E9002345
:10146000FFF792F802460B4610461946FFF76EFB4F
:101470000346064A536100BF1037BD4680BD00BF1A
:101480001F85EB51B81EF13F000061445001002060
:10149000B0B500AF324B9B691846FFF71DF8044604
:1014A0000D462F4BDB681846FFF716F82AA3D3E941
:1014B0000023FFF769F802460B4620462946FEF74F
:1014C000ADFE02460B4610461946FFF73FFB0346AA
:1014D000234A9361224BDB691846FEF7FDFF044661
:1014E0000D461F4B1B691846FEF7F6FF1AA3D3E9FA
:1014F0000023FFF749F802460B4620462946FEF72F
:101500008DFE02460B4610461946FFF71FFB0346A9
:10151000134AD361124B1B6A1846FEF7DDFF0446DF
:101520000D460F4B5B691846FEF7D6FF0AA3D3E9B9
:101530000023FFF729F802460B4620462946FEF70E
:101540006DFE02460B4610461946FFF7FFFA0346AA
:10155000034A136200BFB0BD7B14AE47E17A743F0B
:101560005001002080B584B002AF3C216B480EF0E2
:10157000BFFE3C216A480EF0BBFE0C2269496A4856
:101580000AF0E4FC0346002B01D003F075FA0021B9
:1015900066480EF029FC0346002B01D003F06CFADC
:1015A000042162480EF020FC0346002B01D003F01A
:1015B00063FA08215D480EF017FC0346002B01D0AA
:1015C00003F05AFA0C2159480EF00EFC0346002B8A
:1015D00001D003F051FA002155480EF0CDFC03462E
:1015E000002B01D003F048FA504B1B684F4AD268D9
:1015F0005A634E4B1B684D4AD2689A634B4B1B682B
:101600004A4AD268DA63494B1B68484AD2681A646E
:1016100064200FF095FEFFF7F3FC03461A46454B96
:101620001A7002F07DF903461A46434B1A70FFF711
:10163000C7FE03461A46414B1A7004F065F903468B
:101640001A463F4B1A7000F089FC3E4810F0E2F950
:10165000384B1B781946384B1B781A46374B1B788A
:101660001846374B1B7800930346374810F04CF967
:1016700036480EF0F9FA36480EF0F6FA354B4FF4CC
:10168000FA621A800023FB8030E02A4B1B781A464E
:10169000294B1B781344294A12781344284A12789C
:1016A0001344032B0FDD012002F090F92A4900209A
:1016B000FFF7D2FD29490120FFF7CEFD4FF47A70E4
:1016C0000FF03EFE1FE0FB88DBB2184602F07EF909
:1016D00021490020FFF7C0FD21490120FFF7BCFD93
:1016E00032200FF02DFEFB880133FB80FA88194B66
:1016F000B3F900301B4981FB03010911DB17CB1A39
:101700001BB29A42C1DB002002F060F9164810F0CB
:1017100081F900BF0837BD4680BD00BF18490020D1
:10172000604900207C010020944600208848002069
:10173000D0480020770100207A01002078010020A5
:10174000760100205C3A0108683A0108A8490020A7
:10175000F0490020B00100209C3A0108A83A010895
:10176000B43A01081F85EB51C03A010898B500AFA3
:10177000A34B1B780A2B0DD9A14B1B78632B09D8DF
:10178000A04B1B78002B05D09F4B1B689F4A136012
:1017900000F060FA9A4B1B78662B00F00082662BF3
:1017A00000F32382652B00F0CC81652B00F31D82B2
:1017B0000B2B00F0CC800B2B00F31782002B02D0F8
:1017C000012B15D011E204F047FB914B1B78002B45
:1017D00000F00D828C4B00221A608E4B41F2707229
:1017E0001A80012002F032F9854B01221A70FEE1C5
:1017F00089490020FFF730FD864BB3F90030874A56
:1018000082FB03129211DB17D31A1BB21A468449CA
:101810000120FFF721FD834BB3F90C0000230022C8
:10182000002103F029FB7B4BB3F9003041F28732F2
:10183000934202DD052002F0C9F8764BB3F900307F
:1018400041F28732934208DC724BB3F90030B3F5B2
:101850007A6F02DB042002F0B9F86E4BB3F9003066
:10186000B3F57A6F09DA6B4BB3F9003040F6B73253
:10187000934202DD032002F0A9F8664BB3F9003071
:1018800040F6B732934208DC624BB3F90030B3F54F
:10189000FA6F02DB022002F099F85E4BB3F90030D8
:1018A000B3F5FA6F08DA5B4BB3F90030B3F57A7F22
:1018B00002DB012002F08AF8564BB3F90030B3F591
:1018C0007A7F00F396810021002003F0E1F9564B66
:1018D00000221A70554B01221A70554B1B78002BB1
:1018E00001D004F083F8FFF7D9FB002002F06EF876
:1018F000504B00221A60504B00221A604FF41670B1
:1019000001F0BCFA03464D4A13603F4B00221A60B7
:101910004B4B4FF000029A61494B4FF00002DA61E5
:10192000474B4FF000021A62464B4FF000029A609C
:10193000454B4FF000029A60444B4FF000029A6012
:10194000434B01221A702E4B0B221A7051E1414B6E
:101950001B78002B0FD1404B1B78002B05D13F4B40
:101960001B68184603F084FBD2E03C4B5B681846CA
:1019700003F07EFBCCE0374B1B78012B7ED1384B3C
:101980001A6838491346DB009B1A9B000B44183336
:101990001B68354A1360354B1B881A46304B1B6851
:1019A0009A421AD92E4B1B680133314A9B001344CB
:1019B000D3ED007AF0EEE77A9FED2E7AF4EEC77A57
:1019C000F1EE10FA09D8284BD3ED007AB1EE007A87
:1019D00077EEC77A244BC3ED007A234BD3ED007A20
:1019E000B2EE0A7AF4EEC77AF1EE10FA02D51E4B87
:1019F000214A1A601C4B1B68184603F039FB87E02C
:101A000074010020D8450020AC010020B80100205E
:101A1000F4690020B0010020D03A0108D34D6210D3
:101A2000DC3A01083C00002002000020790100207F
:101A300076010020F4450020D0050020FC45002060
:101A4000500100204C0000205C0000206C000020B1
:101A500075010020C40500207B0100200400002047
:101A6000B4010020D8050020CC050020C8050020C6
:101A7000C40100200000484300005041604B1B7827
:101A8000022B45D15F4B1B78002B07D05E4B1B68A8
:101A9000002B03D15D4B1B685B4A13605A4B1B68DC
:101AA000002B28DD594B1A68574B1B68D41A32207B
:101AB00001F0E4F903469C4225DB554B1B8819468F
:101AC000544A0B46DB005B1A9B00134418331B6817
:101AD000514A13604D4B1B684B4A13604C4B1A889C
:101AE0004E4B1B889A420ED2494B1B8801339AB247
:101AF000474B1A8007E0444B1B68002B03D1484B2F
:101B0000DB68454A1360444B1B68184603F0B0FA83
:101B1000444BB3F90C00444BB3F90C1000230022E2
:101B200003F0AAF9374B1B78012B64D93F4B1B6894
:101B30003F4A13603F4B00221A603F4B65221A70E8
:101B400059E04FF4FA7001F099F90246394B1B68DD
:101B50009A4204DC4FF0000003F08AFA04E0304BB4
:101B60009B68184603F084FA2E4BB3F90C002E4BF9
:101B7000B3F90C100023002203F07EF92F4BB3F9C8
:101B80000030002B39D14FF4FA7001F077F902469A
:101B9000284B1B689A4230DC00F05CF82EE00023F2
:101BA00000220021002003F067F9002001F04EFF21
:101BB0001F4B1B6807EE903AF8EE677A9FED207A8C
:101BC000C7EE876A16EE900AFEF786FC02460B46C1
:101BD0001C490020FFF740FB1B4B1A681B4B1B786E
:101BE0001B490120FFF738FB08E000BF06E000BFFB
:101BF00004E000BF02E000BF00E000BF00BF98BDEE
:101C0000C40500207C4A0020D0050020F4450020B7
:101C1000C6050020D8210020CC050020C8050020E2
:101C2000040000203C0000204C000020AC010020FB
:101C3000B8010020F845002074010020EA4500208A
:101C400000007A44E83A0108B4010020D845002099
:101C5000F43A010880B500AF084B1B78002B01D087
:101C600004F022F8064B00221A70064B01221A706B
:101C7000054B66221A7000BF80BD00BF75010020B1
:101C800079010020020000207401002080B400AF20
:101C9000094BB3F90030002B08DD074BB3F90030D6
:101CA0009BB2013B9BB21AB2034B1A8000BFBD46E8
:101CB0005DF8047B704700BFB00100200000000009
:101CC000B0B500AF544B1B681846FEF705FC044640
:101CD0000D46524B5B691846FEF7FEFB4CA3D3E959
:101CE0000023FEF751FC02460B4620462946FEF72C
:101CF00095FA02460B4610461946FEF727FF0346A3
:101D0000454A1360454BD3ED057AF0EEE77A9FED37
:101D1000447AF4EEC77AF1EE10FA23D5414B002253
:101D20001A70414B00221A70404B1B78002B05D1D2
:101D30003F4B00221A603D4B01221A703B4B1B782F
:101D4000012B63D1642001F099F80246384B1B68DF
:101D50009A425BDA374B00221A702F4B4FF0000289
:101D60001A6053E02D4BD3ED057AB0EE047AF4EE11
:101D7000C77AF1EE10FA1FDD2C4B00221A70294BA6
:101D800000221A70284B1B78002B05D1284B00220B
:101D90001A60254B01221A70234B1B78012B35D179
:101DA000142001F06BF80246214B1B689A422DDA91
:101DB000204B02221A7029E0184BD3ED057AB8EEB9
:101DC000047AF4EEC77AF1EE10FA00D41EE0174B55
:101DD00000221A70144B00221A70124B1B78002B31
:101DE00005D1134B00221A600E4B01221A700D4BC5
:101DF0001B78012B0AD1142001F040F802460C4B4D
:101E00001B689A4202DA0B4B01221A7000BFB0BD68
:101E10007B14AE47E17A743FBC01002050010020E2
:101E20003333F33FC0010020C1010020C201002074
:101E3000004600207B01002080B487B000AF7860AE
:101E4000396097ED017ADFED196AC7EE267A9FEDCA
:101E5000187A67EE877A9FED177A67EE877AC7ED73
:101E6000047AD7ED007A9FED137A67EE877AC7ED93
:101E7000037AD7ED046A97ED037AC6EE877AC7ED49
:101E8000057AD7ED057AF0EEE77A9FED0B7AF4EE5E
:101E9000C77AF1EE10FA01DD084B7B617B691846C9
:101EA0001C37BD465DF8047B704700BFC74B7042CE
:101EB00000007A440AD7233C0080BB4400401C4603
:101EC00080B5ADF5926D00AF024607F59263A3F2BF
:101ED0008A431A8007F59263A3F591621A49134663
:101EE00003C9186004331980931D00221A605A60D8
:101EF0009A60DA601A615A611A83144809F0B8F9D5
:101F000007F1280312221249184608F097FC0346ED
:101F100087F88F3407F59263A3F28A43B3F9002060
:101F200007F128030B49184609F050FC07F1280374
:101F3000184609F073F9084809F09AF900BF07F547
:101F40009267BD4680BD00BF203B0108003B0108F1
:101F50000C3B0108183B01081C3B010880B5ADF59E
:101F6000D16D00AF07F5D163A3F5D1622E491346B9
:101F700003C9186004331980931D00221A605A6047
:101F80009A60DA601A615A611A83284809F070F978
:101F900007F5087311222649184608F04FFC03463E
:101FA00087F8853697F88536002B14D107F5087227
:101FB00007F120034FF48071184609F02EFB07F15A
:101FC00020031C4A1C4918460FF018FF07F5087338
:101FD000184609F023F90023A7F8863615E0B7F96B
:101FE0008636164A32F91320124BB3F900309A4262
:101FF00004D1134AB7F8863613800DE0B7F9863658
:102000009BB201339BB2A7F886360E4BB3F9003072
:10201000B7F986269A42E2DD0B4809F029F900BF9C
:1020200007F5D167BD4680BD203B0108003B010894
:102030000C3B0108D4050020183B01081C6200205D
:10204000EC690020EE6900201C3B010880B5ADF56D
:10205000456D04AF07F54463A3F63C4318600023C5
:10206000A7F83E3C07F54463A3F63C4307F6EC10A3
:102070001B68C44A0A210FF06DFE07F6EC131846E0
:10208000FEF736FF03461A4607F6EC131344BE4A22
:102090001068186012791A7107F6EC1107F6F81338
:1020A0001122184608F0CAFB034687F82E3C97F821
:1020B0002E3C002B40F05781B4480FF0ABFC0023BE
:1020C000C7F8383C0023C7F8343C0023C7F8303C3D
:1020D00036E107F6E41107F6E81207F1080007F603
:1020E000D813029307F6DC13019307F51E630093E0
:1020F0000B46A7490FF082FE07F54463A3F517735B
:102100001B68002B40F0E58097F82F3C022B40F035
:10211000E080D7F8343C9B0018460FF0F7FA0346EE
:10212000C7F8283CD7F8343C9A0007F502731946E3
:10213000D7F8280C0FF0F2FAD7F8341C954B04228C
:10214000D7F8280C0FF0A6FCD7F8343C03F00103B5
:10215000002B2AD1D7F8343CDA0F13445B109B00D4
:10216000D7F8282C134493ED007AD7F8343CDA0FD3
:1021700013445B1003F18043013B9B00D7F8282CEC
:102180001344D3ED007A37EE277AF0EE006AC7EEFB
:10219000267A8149D7F8382C1346DB009B1A9B001E
:1021A0000B441433C3ED007A13E0D7F8343CDA0F54
:1021B00013445B109B00D7F8282C13441968764809
:1021C000D7F8382C1346DB009B1A9B0003441433CA
:1021D00019600023C7F8343C07F54463A3F5167370
:1021E00019686E48D7F8382C1346DB009B1A9B0001
:1021F0000344196007F54463A3F517731B68D8B24D
:102200006649D7F8382C1346DB009B1A9B000B4419
:10221000043302461A7007F54463A3F518731B686C
:1022200007EE903AB8EEE77ADFED5D6AC7EE267A00
:102230005A49D7F8382C1346DB009B1A9B000B44F5
:102240000833C3ED007A07F54463A3F519731B68DF
:1022500007EE903AB8EEE77ADFED526AC7EE267ADB
:102260004E49D7F8382C1346DB009B1A9B000B44D1
:102270000C33C3ED007A07F54463A3F51A731968AC
:102280004648D7F8382C1346DB009B1A9B000344C2
:1022900010331960444AD7F8383C9B0013441B683C
:1022A000184600F005FC06EE900AB2EE047AC6EE7F
:1022B000877A3A49D7F8382C1346DB009B1A9B00E3
:1022C0000B441833C3ED007AD7F8383C0133C7F814
:1022D000383C07F54463A3F517731B6887F82F3C58
:1022E00007F54463A3F518731B6807EE903AF8EE00
:1022F000E76A07F54463A3F519731B6807EE903A84
:10230000F8EEE77A9FED277A87EE876A16EE101AC5
:1023100016EE900AFFF790FD014607F54463A3F619
:102320003822D7F8343C9B0013441960D7F8343C6A
:102330000133C7F8343CD7F8303C0133C7F8303CA0
:1023400007F6F81207F108034FF48071184609F0F8
:1023500064F90346002B7FF4BCAED7F8383C9BB23F
:10236000013BA7F83E3C07F6F813184608F056FF65
:102370000E480FF04FFBB7F83E3C184607F5446790
:10238000BD4680BD183B0108403B0108483B0108A1
:10239000603B0108ED2B0008D8050020D821002063
:1023A000C74B704200401C46C4010020703B01082E
:1023B00090B5ADF6744D04AF07F54663A3F65C43E4
:1023C00018600023A7F85E3C07F54663A3F65C435C
:1023D00007F51F601B68854A0A210FF0BBFC07F553
:1023E0001F631846FEF784FD03461A4607F51F6370
:1023F00013447F4A1068186012791A7107F51F613B
:1024000007F6FC131122184608F018FA034687F85D
:10241000423C97F8423C002B40F01D8375480FF07A
:10242000F9FA0023C7F8543C0023C7F8503C0023B6
:10243000C7F84C3C0023C7F8483C0023C7F8443C8D
:10244000002387F8433C07F54663A3F65423184658
:102450004FF4FA631A4600210FF06EF94FF4E05280
:10246000002165480FF068F94FF4E05200216348FD
:102470000FF062F9A7E107F6E81107F6EC1207F191
:102480000C0007F6DC13029307F51E63019307F6B1
:10249000E41300930B465A490FF0B0FC07F546636E
:1024A000A3F51E731B68012B1DD1D7F8443C002BEC
:1024B00019D197F8433C002B14BF01230023DBB252
:1024C00083F00103DBB287F8433C97F8433C03F009
:1024D000010387F8433C07F54663A3F521731B68A6
:1024E000C7F8543C21E007F54663A3F51E731B684B
:1024F000002B1AD1D7F8443C022B16D107F54663BE
:10250000A3F521731A683F49D7F84C3C41F83320B2
:102510003C4AD7F84C3CDB001344D7F8502C5A60A7
:10252000D7F84C3C0133C7F84C3C97F8433C002BA0
:1025300000F0428107F54663A3F521731A68D7F8C6
:10254000543CD41A322000F099FC03469C42C0F25D
:102550000881D7F8483C9B0018460FF0D7F803468F
:10256000C7F82C3CD7F8483C9A0007F50373194686
:10257000D7F82C0C0FF0D2F8D7F8481C224B0422C5
:10258000D7F82C0C0FF086FAD7F8483C03F001037B
:10259000002B3BD1D7F8483CDA0F13445B109B006B
:1025A000D7F82C2C134493ED007AD7F8483CDA0F77
:1025B00013445B1003F18043013B9B00D7F82C2CA4
:1025C0001344D3ED007A37EE277AF0EE006AC7EEB7
:1025D000267A0949D7F8502C1346DB009B1A9B003A
:1025E0000B441433C3ED007A24E000BF183B01080C
:1025F000403B0108843B0108D8210020D805002079
:10260000603B0108D83D0020ED2B0008D7F8483C7E
:10261000DA0F13445B109B00D7F82C2C1344196875
:10262000B648D7F8502C1346DB009B1A9B00034496
:10263000143319600023C7F8483C07F54663A3F537
:102640001D731968AD48D7F8502C1346DB009B1A50
:102650009B000344196007F54663A3F51E731B68CE
:10266000D8B2A649D7F8502C1346DB009B1A9B0022
:102670000B44043302461A7007F54663A3F51F7333
:102680001B6807EE903AB8EEE77ADFED9D6AC7EE79
:10269000267A9A49D7F8502C1346DB009B1A9B00E8
:1026A0000B440833C3ED007A07F54663A3F52073A6
:1026B0001B6807EE903AB8EEE77ADFED926AC7EE54
:1026C000267A8E49D7F8502C1346DB009B1A9B00C4
:1026D0000B440C33C3ED007A07F54663A3F5217371
:1026E00019688648D7F8502C1346DB009B1A9B00CC
:1026F0000344103319608149D7F8502C1346DB008E
:102700009B1A9B000B4414331B68184600F0D0F949
:1027100001467A48D7F8502C1346DB009B1A9B00E1
:102720000344183319607549D7F8502C1346DB0061
:102730009B1A9B000B4414331B681846FDF7CCFE14
:1027400002460B4670480FF0DFF807F54663A3F525
:1027500021731B68C7F8543CD7F8503C0133C7F8C5
:10276000503C07F54663A3F51F731B6807EE903ACC
:10277000F8EEE76A07F54663A3F520731B6807EEDA
:10278000903AF8EEE77A9FED5F7A87EE876A16EE69
:10279000101A16EE900AFFF74FFB014607F5466345
:1027A000A3F65422D7F8483C9B0013441960D7F88D
:1027B000483C0133C7F8483C07F54663A3F51E7350
:1027C0001B68C7F8443C07F6FC1207F10C034FF4F2
:1027D0008071184608F021FF0346002B7FF44BAEB2
:1027E000D7F84C3C013BC7F84C3CD7F8503C013B78
:1027F000C7F8503C45480FF00DF9454B07F63C42F1
:1028000013600223C7F8583C6BE03C49D7F8582CBA
:102810001346DB009B1A9B000B44183393ED007AA0
:10282000D7F8583C5A1E35491346DB009B1A9B00CB
:102830000B441833D3ED007A77EE677A07F6384306
:10284000C3ED007A07F63C43D3ED006A07F6384340
:1028500093ED007AC6EE877AF0EEE77A07F6344316
:10286000C3ED007A07F63843D3ED006A07F6344328
:1028700093ED007AC6EE877A07F54363C3ED007ADD
:1028800007F54363D3ED007A9FED227AF4EEC77A21
:10289000F1EE10FA20DDD7F8583C5A1E17491346BE
:1028A000DB009B1A9B000B44183393ED007A07F66C
:1028B0003C43D3ED007ADFED176A67EEA67A77EE38
:1028C000277A0E49D7F8582C1346DB009B1A9B0039
:1028D0000B441833C3ED007AD7F8583C0133C7F8DE
:1028E000583CD7F8503CD7F8582C9A428DD9D7F895
:1028F000503C013BC7F8583C7AE000BFD82100208B
:10290000C74B704200401C469C3B0108A03B01089D
:10291000CDCC4C3DCDCC2C405F49D7F8582C13463C
:10292000DB009B1A9B000B44183393ED007AD7F819
:10293000583C5A1C58491346DB009B1A9B000B4419
:102940001833D3ED007A77EE677A07F63843C3ED94
:10295000007A07F63C43D3ED006A07F6384393ED5F
:10296000007AC6EE877AF0EEE77A07F63443C3EDD5
:10297000007A07F63843D3ED006A07F6344393ED47
:10298000007AC6EE877A07F54363C3ED007A07F550
:102990004363D3ED007AB0EE047AF4EEC77AF1EE39
:1029A00010FA20DDD7F8583C5A1C3B491346DB008F
:1029B0009B1A9B000B44183393ED007A07F63C43B7
:1029C000D3ED007AF0EE046A67EEA67A77EE277A06
:1029D0003149D7F8582C1346DB009B1A9B000B4457
:1029E0001833C3ED007AD7F8583C013BC7F8583C80
:1029F000D7F8583C002B8FD10023C7F8583C16E07D
:102A00002549D7F8582C1346DB009B1A9B000B4432
:102A100018331B681846FDF75FFD02460B461F483A
:102A20000EF072FFD7F8583C0133C7F8583CD7F87E
:102A3000503CD7F8582C9A42E2D9D7F84C3C9AB27D
:102A4000174B1A80D7F8503C9AB2164B1A80D7F819
:102A5000503CA7F85E3C07F6FC13184608F0DEFB76
:102A600011480EF0D7FF07F54663A3F65C431B68D9
:102A70001BB21846FFF724FA07F54663A3F65C433A
:102A80001B681AB2094B1A80B7F85E3C184607F665
:102A90006447BD4690BD00BFD82100209C3B010883
:102AA000CA050020C8050020B03B0108D40500205D
:102AB00080B485B000AF7860D7ED017AF0EEE77AA8
:102AC000C7ED027AD7ED027A9FED3E7AF4EEC77A2F
:102AD000F1EE10FA02DD3C4BDB68FB60D7ED027AC9
:102AE0009FED387AF4EEC77AF1EE10FA02D8364B41
:102AF0001B69FB60D7ED027A9FED347AF4EEC77A5A
:102B0000F1EE10FA02D8304B5B69FB60D7ED027A28
:102B10009FED2F7AF4EEC77AF1EE10FA02D82A4B25
:102B20009B69FB60D7ED027A9FED2A7AF4EEC77AB3
:102B3000F1EE10FA02D8244BDB69FB60D7ED027A84
:102B40009FED257AF4EEC77AF1EE10FA02D81E4B0B
:102B50001B6AFB60D7ED027A9FED207AF4EEC77A0C
:102B6000F1EE10FA02D8184B5B6AFB60D7ED027ADF
:102B70009FED1B7AF4EEC77AF1EE10FA02D8124BF1
:102B80009B6AFB60D7ED027A9FED167AF4EEC77A66
:102B9000F1EE10FA02D80C4BDB6AFB60D7ED027A3B
:102BA0009FED117AF4EEC77AF1EE10FA02D8064BD7
:102BB0001B6BFB60FB6818461437BD465DF8047B51
:102BC000704700BF0080BB44040000200000484460
:102BD00000002F44000016440000FA430000C843E0
:102BE00000009643000048430000C84280B483B010
:102BF00000AF786039607B6893ED007A3B68D3ED75
:102C0000007AB4EEE77AF1EE10FA01DD01230EE06E
:102C10007B6893ED007A3B68D3ED007AB4EEE77AF7
:102C2000F1EE10FA02D54FF0FF3300E00023184612
:102C30000C37BD465DF8047B7047000080B400AFE0
:102C4000104BD3ED037AF0EEE77AB0EE007AF4EEB3
:102C5000C77AF1EE10FA06DD0B4B1B8801339AB2EE
:102C6000094B1A8002E0084B00221A80064B1B8891
:102C7000642B01D9012300E000231846BD465DF80E
:102C8000047B704750010020DA45002080B400AF7B
:102C9000104BD3ED047AF0EEE77AB0EE007AF4EE62
:102CA000C77AF1EE10FA06DD0B4B1B8801339AB29E
:102CB000094B1A8002E0084B00221A80064B1B8841
:102CC000642B01D9012300E000231846BD465DF8BE
:102CD000047B704750010020DC45002080B400AF29
:102CE0000F4BB3F90030002BB8BF5B429BB2002BF7
:102CF00006D10C4B1B8801339AB20A4B1A8002E0B2
:102D0000084B00221A80074B1B88C82B01D90123CE
:102D100000E000231846BD465DF8047B704700BF05
:102D2000EA450020DE45002080B400AF0F4B5B89F0
:102D30001A460E4B9B89134440F6E442934206DD4B
:102D40000B4B1B8801339AB2094B1A8002E0084BE7
:102D500000221A80064B1B88C82B01D9012300E0F2
:102D600000231846BD465DF8047B704740460020AE
:102D7000E045002080B483B000AF334B5B6AFB803A
:102D8000324B5B6ABB80324B1A88FB88D31A9BB2EA
:102D90001AB2304B1A80304B1A88BB88D31A9BB2B8
:102DA0001AB22E4B1A802B4BB3F900301A462B4B1C
:102DB000B3F900301344DA0F13445B101AB2284BF6
:102DC0001A80244BB3F900301A46264B1B68134473
:102DD000244A1360214BB3F900301A46224B1B687A
:102DE0001344214A13601E4BB3F900301A461F4B9F
:102DF0001B6813441D4A1360194BB3F900301A467F
:102E00001B4B1B6813441A4A1360154BB3F900306F
:102E10001A46184B1B681344164A1360104BB3F93B
:102E200000301A46144B1B681344134A1360084AB7
:102E3000FB881380084ABB88138000BF0C37BD464F
:102E40005DF8047B704700BF0008004000040040AC
:102E5000E2450020E6450020E4450020E84500204A
:102E6000EA450020EC450020F0450020F445002014
:102E7000F8450020FC4500200046002080B483B0C7
:102E800000AF0346FB80B7F90630002BB8BF5B42AA
:102E90009BB207EE903AF8EEE77A9FED077A67EE7D
:102EA000877AFDEEE77A17EE903A18460C37BD4662
:102EB0005DF8047B704700BFC74B704280B500AF20
:102EC00000224FF4005102480AF050FA00BF80BDC2
:102ED0000004024080B500AF01224FF400510248C7
:102EE0000AF044FA00BF80BD0004024080B582B001
:102EF00000AF0346FB7100BF08480CF0AAFC034674
:102F0000012BF9D1F91D4FF47A73012203480CF01B
:102F1000C2F900BF0837BD4680BD00BF3048002061
:102F200080B584B002AFFF23FB710023BB7100BFEB
:102F300009480CF08EFC0346012BF9D1BA1DF91D8E
:102F40004FF47A730093012303480CF0E0FABB7945
:102F500018460837BD4680BD3048002080B582B095
:102F600000AF7860FFF7DCFF03461A467B681A70F3
:102F700000BF0837BD4680BD80B582B000AF0B4BA7
:102F800032221A70FFF7CCFFFFF7CAFF0346FB712E
:102F9000FB79FF2B04D0054B1B78DBB2002BF3D160
:102FA000FB7918460837BD4680BD00BF0D6A00207A
:102FB00080B586B000AF41F6FF737B61FFF78AFFF3
:102FC00000233B6105E0FF20FFF790FF3B690133E1
:102FD0003B613B69092BF6DDFFF770FF40233B7136
:102FE00000237B710023BB710023FB7100233B7224
:102FF00095237B720023FB6009E03A1DFB681344B4
:103000001B781846FFF772FFFB680133FB60FB6813
:10301000052BF2DD02E07B69013B7B61FFF780FF5E
:103020000346012B02D07B69002BF4D1FFF752FF3E
:10303000FF20FFF75BFF034B01221A7000BF183718
:10304000BD4680BD0546002080B400AF034B002282
:103050001A7000BFBD465DF8047B7047054600202E
:1030600080B400AF034B1B781846BD465DF8047B67
:10307000704700BF0546002080B584B000AF78607F
:103080003960174B0A221A70FFF74AFF0346FB7399
:10309000FB7BFF2B04D1124B1B78DBB2002BF3D14F
:1030A000FB7BFE2B01D0002316E07B685A1C7A6064
:1030B0001846FFF753FF7B685A1C7A601846FFF7E3
:1030C0004DFF3B68023B3B603B68002BEDD1FFF7B7
:1030D00027FFFFF725FF012318461037BD4680BDA7
:1030E0000C6A002080B584B000AF78600B46FB709E
:1030F00000237B73FFF740FF0346FF2B01D0002323
:1031000040E0FB781846FFF7F1FEFB78FD2B31D04D
:103110000023BB737B685A1C7A601B781846FFF744
:10312000E5FE7B685A1C7A601B781846FFF7DEFEC6
:10313000BB7B013BBB73BB7B002BEBD1FFF7F0FEEE
:10314000FFF7EEFE0BE0FFF7EBFE0346FB73FB7BA6
:1031500003F01F03052B06D07B7B01337B737B7B46
:10316000402BF0D900E000BF00BFFFF7D9FE0346B7
:10317000002BFAD0FB7B03F01F03052B01D10123A9
:1031800000E0002318461037BD4680BD80B584B0EE
:1031900000AF03463960FB71FFF7EEFE0346FF2BDD
:1031A00001D0FF2340E0FB791846FFF79FFE3B6804
:1031B0001B0EDBB21846FFF799FE3B681B0CDBB217
:1031C0001846FFF793FE3B681B0ADBB21846FFF771
:1031D0008DFE3B68DBB21846FFF788FE0023FB73C9
:1031E000FB79402B01D19523FB73FB79482B01D14F
:1031F0008723FB73FB7B1846FFF778FEFB794C2B8C
:1032000001D1FFF78DFE0A23BB73FFF789FE03464A
:103210007B7397F90D30002B05DABB7B013BBB7349
:10322000BB7B002BF1D17B7B18461037BD4680BDA0
:1032300090B585B000AF0346FB71FB79002B01D040
:103240000123D5E06C4B1B78DBB203F00203002BAB
:1032500003D0694B1B78DBB2CAE0FFF7A9FEFFF78A
:103260002DFE0023BB7300214020FFF78FFF034694
:10327000012B40F0A580614B64221A704FF4D57188
:103280004820FFF783FF0346012B58D10023FB732F
:103290000CE0FC7BFFF744FE03461A4604F11003E2
:1032A0003B4403F8082CFB7B0133FB73FB7B032BB4
:1032B000EFD9BB7A012B40F08380FB7AAA2B7FD118
:1032C00000217720FFF762FF0346012B07D84FF05C
:1032D00080416920FFF75AFF0346002B05D0474B7A
:1032E0001B78DBB2002BEBD100E000BF434B1B7817
:1032F000DBB2002B64D000217A20FFF747FF0346A2
:10330000002B5DD10023FB730CE0FC7BFFF708FE74
:1033100003461A4604F110033B4403F8082CFB7BD8
:103320000133FB73FB7B032BEFD93B7A03F04003A4
:10333000002B01D0062300E00223BB7340E00021F4
:103340007720FFF723FF0346012B08D800216920CF
:10335000FFF71CFF0346012B01D8022300E00123E5
:10336000BB73BB7B022B0ED100217720FFF70EFF32
:103370000346012B0ED800216920FFF707FF034603
:10338000002B07D10DE000214120FFF7FFFE03468F
:10339000002B05D0194B1B78DBB2002BE1D100E0EC
:1033A00000BF164B1B78DBB2002B07D04FF4007127
:1033B0005020FFF7EBFE0346002B01D00023BB7328
:1033C0000F4ABB7B1370FFF785FDFFF7A9FDBB7BA1
:1033D000002B08D0084B1B78DBB223F00103DAB2D4
:1033E000054B1A7001E0FFF72FFE034B1B78DBB291
:1033F00018461437BD4690BD380000200C6A0020E6
:103400000446002080B483B000AF0346FB71FB7913
:10341000002B01D0012302E0044B1B78DBB21846DD
:103420000C37BD465DF8047B704700BF38000020B4
:1034300080B584B000AFB9607A603B600346FB732F
:10344000FB7B002B02D13B68002B01D1042354E00D
:103450002C4B1B78DBB203F00103002B01D00323BC
:103460004BE0294B1B7803F00403002B02D17B684F
:103470005B027B60FFF722FD3B68012B11D179686D
:103480005120FFF783FE0346002B2CD14FF400712F
:10349000B868FFF7F1FD0346002B24D000233B6002
:1034A00021E079685220FFF771FE0346002B1AD104
:1034B0004FF40071B868FFF7DFFD034683F00103A6
:1034C000DBB2002B0AD1BB6803F50073BB603B681D
:1034D000013B3B603B68002BEAD100E000BF0021CC
:1034E0004C20FFF753FEFFF7F5FCFFF719FD3B6893
:1034F000002B14BF01230023DBB218461037BD4652
:1035000080BD00BF380000200446002080B584B094
:1035100000AFB9607A603B600346FB73FB7B002B16
:1035200002D13B68002B01D1042371E03A4B1B7898
:10353000DBB203F00103002B01D0032368E0364B1C
:103540001B78DBB203F00403002B01D002235FE001
:10355000324B1B7803F00403002B02D17B685B0223
:103560007B60FFF7ABFC3B68012B10D179685820DA
:10357000FFF70CFE0346002B40D1FE21B868FFF791
:10358000B1FD0346002B39D000233B6036E0234BCE
:103590001B7803F00203002B07D000217720FFF7F0
:1035A000F5FD39685720FFF7F1FD79685920FFF7DD
:1035B000EDFD0346002B21D1FC21B868FFF792FDF9
:1035C000034683F00103DBB2002B0AD1BB6803F58D
:1035D0000073BB603B68013B3B603B68002BEBD159
:1035E00000E000BFFD210020FFF77CFD034683F0D3
:1035F0000103DBB2002B01D001233B60FFF76AFC23
:10360000FFF78EFC3B68002B14BF01230023DBB2C5
:1036100018461037BD4680BD380000200446002003
:1036200090B58BB000AF03463A60FB710B46BB719F
:103630003B683B62FB79002B01D004231BE1012393
:1036400087F82730BB79052B29D13B6A1B78022BE1
:1036500017D0022B1FDC002B02D0012B0BD01AE05D
:10366000FFF7FEFC0346002B01D0FFF7EDFC002323
:1036700087F82730FDE0FFF79BFC002387F8273011
:10368000F7E03B6A5C1CFFF7EBFC0346237000236A
:1036900087F82730EDE0042387F82730E9E0784BFE
:1036A0001B78DBB203F00103002B01D00323E2E01F
:1036B000FFF704FCBB790D2B00F2CC8001A252F87D
:1036C00023F000BFBF370008FD360008AF37000801
:1036D0005538000855380008553800085538000896
:1036E0005538000855380008553800085538000886
:1036F000D1370008F53700081938000800214920A3
:10370000FFF744FD0346002B40F0A88007F10C03AF
:1037100010211846FFF7B0FC0346002B00F09E80F6
:103720003B7B9B09DBB2012B0ED17B7D9AB23B7DAB
:103730009BB21B029BB213449BB20133FB83FB8BF6
:103740009A023B681A602EE07B7C03F00F03DAB22A
:10375000BB7DDB09DBB21344DAB27B7D5B00DBB2FD
:1037600003F00603DBB21344DBB2023387F82630E2
:103770003B7D9B09DBB29AB2FB7C9BB29B009BB268
:1037800013449AB2BB7C9B029BB203F440639BB28E
:1037900013449BB20133FB83FA8B97F82630093B25
:1037A0009A403B681A60002387F8273056E03B6850
:1037B0004FF400721A80002387F8273055E0FFF796
:1037C000DBFB0346FF2B4BD1002387F8273047E074
:1037D00000214920FFF7DAFC0346002B42D11021DB
:1037E000386AFFF749FC0346002B3BD0002387F8DB
:1037F000273037E000214A20FFF7C8FC0346002BA2
:1038000032D11021386AFFF737FC0346002B2BD04A
:10381000002387F8273027E000217A20FFF7B6FC45
:103820000346002B16D1002387F826300BE03C6AB4
:10383000631C3B62FFF774FB0346237097F8263046
:10384000013387F8263097F82630032BEFD9002371
:1038500087F82730042387F8273006E000BF04E00C
:1038600000BF02E000BF00E000BFFFF733FBFFF73F
:1038700057FB97F8273018462C37BD4690BD00BF40
:103880003800002080B588B004AF03460A46FB80AC
:1038900013467B710223FB73FB8843F0010399B24B
:1038A0007B799AB2FB7B9BB20A200290019307F1CD
:1038B0000C030093012307480AF0AEF83B7B9BB250
:1038C0001B029AB27B7B9BB213449BB21846103703
:1038D000BD4680BD8447002080B588B004AF034654
:1038E000FB800B467B7113467B807B88DBB23B738E
:1038F0000123FB737B799AB2FB7B9BB2F9880A2088
:103900000290019307F10C0300930123034809F08F
:1039100089FF00BF1037BD4680BD00BF844700202F
:1039200080B500AFFE218820FFF7ACFF03461A46A2
:1039300045F249439A4241D1FE218020FFF7A2FF80
:1039400003461A4645F249439A4237D146F6273292
:1039500000218020FFF7C0FF32200DF0F1FC46F679
:10396000273200218820FFF7B7FF32200DF0E8FC56
:10397000FE218020FFF786FF0346194611480DF00F
:10398000C3FFFE218820FFF77DFF034619460D483F
:103990000DF0BAFFFF218020FFF774FF03461946A0
:1039A00009480DF0B1FFFF218820FFF76BFF0346A8
:1039B000194605480DF0A8FF012300E00023184632
:1039C00080BD00BFC83B0108E03B010880B582B064
:1039D00000AF0346FB71FB7903F00403002B06D014
:1039E00000224FF48051174809F0C0FC05E0012285
:1039F0004FF48051134809F0B9FCFB7903F002033E
:103A0000002B05D0002210210F4809F0AFFC04E084
:103A1000012210210C4809F0A9FCFB7903F00103F5
:103A2000002B05D000222021074809F09FFC04E06C
:103A300001222021044809F099FC00BF0837BD4647
:103A400080BD00BF000002400004024080B483B08B
:103A500000AF0346FB71FB79002B07D10C4B002212
:103A60001A700C4B1B6800225A630BE0FB79012B88
:103A700008D1074B01221A70064BDA68054B1B6808
:103A800052085A6300BF0C37BD465DF8047B70478F
:103A900072460020D048002080B483B000AF0023DD
:103AA000FB716EE0FB793C4A52F82310FB793B4AEC
:103AB00052F82320FB790A44374941F82320384B38
:103AC0001B8801339AB2364B1A80354B1B88102B5A
:103AD00054D9FB79304A52F823301A09FB7991B254
:103AE000304A22F81310FB792B4A002142F82310A8
:103AF0002B4B00221A80FB792B4A32F81330002B13
:103B000022D02A4B1B78002B1ED1FB79254A32F894
:103B1000133007EE903AF8EE677A9FED257A67EE5C
:103B2000876AFB79204A32F8133007EE903AB8EEF4
:103B3000677AC6EE877AFB79FCEEE77A17EE902A71
:103B400091B21C4A22F813101B4B1B78002B15D086
:103B5000164B1B78012B11D1FB79124A32F8132036
:103B6000FB79114931F813309A4207D9FA79FB7978
:103B70000C4931F812100C4A22F81310FB7901336A
:103B8000FB71FB790B2B8DD900BF00BF0C37BD46F5
:103B90005DF8047B704700BF104600207C010020C8
:103BA00070460020404600207846002090460020C5
:103BB00000F07F45584600207246002000000000BB
:103BC000B0B588B000AF4FF47A737B830023BB831A
:103BD00010E0BB8B984A32F813307A8B9A4206D9A0
:103BE000BB8B954A32F813307B83BB8BFB83BB8B3B
:103BF0000133BB83BB8B0B2BEBD9FB8B0B2B00F265
:103C00000A81FB8B013B8C4A32F813307B82FB8BA1
:103C10000133894A32F813303B827B8A07EE903AAF
:103C2000F8EE676A7A8A3B8A134407EE903AB8EE58
:103C3000E77AC6EE877AC7ED037A3B8A07EE903AB9
:103C4000F8EE676A7A8A3B8A134407EE903AB8EE38
:103C5000E77AC6EE877AC7ED027AFB8B052B18D977
:103C600097ED037AD7ED027A77EE677A17EE900A2E
:103C7000FCF732FC02460B46104619460DF084FB59
:103C800002460B4610461946FCF760FF03467B616F
:103C900017E097ED027AD7ED037A77EE677A17EEA1
:103CA000900AFCF719FC02460B46104619460DF027
:103CB0006BFB02460B4610461946FCF747FF0346CE
:103CC0007B61D7ED057AB2EE067A67EE877A17EE5A
:103CD000900AFCF701FC52A3D3E90023FCF754FC43
:103CE00002460B46104619464FF000024FF0804343
:103CF000FCF774FD02460B46104619464AA3D3E969
:103D00000023FCF76BFD02460B4610461946FCF7F4
:103D10001DFF03467B60FB8B052B31D9FB8B1846BF
:103D2000FCF7C8FB4FF00002444BFCF775FA024663
:103D30000B46104619464FF00002414BFCF724FC9D
:103D400002460B461046194635A3D3E90023FCF77B
:103D50001BFC02460B4614461D467868FCF7BCFB6C
:103D600002460B4620462946FCF758FA02460B4607
:103D700010461946FCF7EAFE0346324A136037E064
:103D8000FB8B1846FCF796FB02460B464FF00000F3
:103D90002A49FCF741FA02460B46104619464FF0F5
:103DA0000002274BFCF7F0FB02460B461046194673
:103DB0001BA3D3E90023FCF7E7FB02460B4614469E
:103DC0001D467868FCF788FB02460B4620462946CC
:103DD000FCF724FA02460B4610461946FCF7B6FEDD
:103DE000034607EE903AF1EE677A164BC3ED007A80
:103DF000144B1B681846FCF76FFB0DA3D3E9002397
:103E0000FCF7C2FB02460B4610461946FCF79EFE25
:103E100003460C4A136000BF2037BD46B0BD00BF4B
:103E2000399D52A246DF913F182D4454FB21E93FB2
:103E3000F8C1631ADCA54C40404600200000164043
:103E4000000026407446002080B483B000AF786044
:103E50004FF06043D3F8803E03F00103002B13D0F2
:103E60004FF06043D3F8003E03F00103002B0BD06A
:103E700000E000BF4FF060431B68002BF9D04FF00B
:103E800060437A68D2B21A707B6818460C37BD4618
:103E90005DF8047B704780B500AF0DF0DFF900F0EE
:103EA00023F800F0E7FC00F0C5FC00F08FF800F00C
:103EB000D9F900F005FA00F06FFA00F025FB00F0E8
:103EC0008FFC00F079FB00F0CBFB00F02FFA00F044
:103ED0001BFC00F067F904F04FFD00F04BFCFDF710
:103EE00041FBFDF743FCFCE780B594B000AF07F160
:103EF0001C033422002118460DF01EFC07F10803B4
:103F000000221A605A609A60DA601A6100237B60AE
:103F10002C4B1B6C2B4A43F080531364294B1B6CB6
:103F200003F080537B607B6800233B60264B1B685B
:103F3000254A43F440431360234B1B6803F440437A
:103F40003B603B680123FB614FF480333B620223FB
:103F50007B634FF48003BB630623FB63B4233B64A2
:103F600002237B640223BB640223FB6407F11C036E
:103F700018460AF04FFD0346002B01D000F07CFDEF
:103F80000AF04EFB0346002B01D000F075FD0F2315
:103F9000BB600223FB6000233B614FF4A0537B61B5
:103FA0004FF48053BB6107F10803052118460AF05E
:103FB000CFFF0346002B01D000F05EFD00BF50375D
:103FC000BD4680BD003802400070004080B584B01E
:103FD00000AF3B4600221A605A609A60DA606F4B6D
:103FE0006F4A1A606D4B4FF480325A606B4B00225F
:103FF0009A606A4B01221A61684B00221A76674B5D
:10400000002283F82020654B4FF08052DA62634B28
:104010004FF0C0629A62614B0022DA605F4B0C2263
:10402000DA615E4B012283F830205C4B01225A6139
:104030005A4807F0E9FD0346002B01D000F01CFDB3
:104040000B233B6001237B600423BB603B46194686
:10405000524808F0ADF80346002B01D000F00CFDEB
:104060000C233B6002237B603B4619464B4808F01B
:104070009FF80346002B01D000F0FEFC0D233B60AF
:1040800003237B603B461946444808F091F80346F9
:10409000002B01D000F0F0FC00233B6004237B6088
:1040A0003B4619463D4808F083F80346002B01D0F3
:1040B00000F0E2FC01233B6005237B603B46194690
:1040C000364808F075F80346002B01D000F0D4FC08
:1040D00002233B6006237B603B4619462F4808F0CD
:1040E00067F80346002B01D000F0C6FC03233B60B9
:1040F00007237B603B461946284808F059F80346D9
:10410000002B01D000F0B8FC04233B6008237B6047
:104110003B461946214808F04BF80346002B01D0D6
:1041200000F0AAFC05233B6009237B603B4619464F
:104130001A4808F03DF80346002B01D000F09CFC23
:1041400006233B600A237B603B461946134808F070
:104150002FF80346002B01D000F08EFC07233B60B4
:104160000B237B603B4619460C4808F021F80346B8
:10417000002B01D000F080FC0E233B600C237B6001
:104180003B461946054808F013F80346002B01D0BA
:1041900000F072FC00BF1037BD4680BD9446002081
:1041A0000020014080B584B000AF3B4600221A6079
:1041B0005A609A60DA60284B284A1A60264B4FF4FE
:1041C00080325A60244B00229A60234B01221A61EC
:1041D000214B01221A76204B002283F820201E4B0F
:1041E0000022DA621C4B1E4A9A621B4B0022DA60E4
:1041F000194B0222DA61184B002283F83020164B4B
:1042000001225A61144807F0FFFC0346002B01D03D
:1042100000F032FC0A233B6001237B600723BB6074
:104220003B4619460C4807F0C3FF0346002B01D05C
:1042300000F022FC0F233B6002237B603B461946C3
:10424000054807F0B5FF0346002B01D000F014FC31
:1042500000BF1037BD4680BDDC4600200021014074
:104260000100000F80B500AF124B134A1A60114BCA
:10427000124A5A600F4B00229A600E4B0022DA60FD
:104280000C4B4FF480421A610A4B00225A61094BD1
:1042900000229A61074B0022DA61064B80221A62E3
:1042A000044809F07DF80346002B01D000F0E4FB40
:1042B00000BF80BD8447002000540040801A0600E3
:1042C00080B500AF174B184A1A60164B4FF4827234
:1042D0005A60144B00229A60124B0022DA60114B94
:1042E00002221A610F4B01225A610E4B4FF40072E9
:1042F0009A610C4B2822DA610A4B00221A62094BA0
:1043000000225A62074B00229A62064B0A22DA62A6
:1043100004480AF037FF0346002B01D000F0ACFB45
:1043200000BF80BDD84700200038004080B500AFF6
:10433000174B184A1A60164B4FF482725A60144B8E
:1043400000229A60124B0022DA60114B00221A619F
:104350000F4B00225A610E4B4FF400729A610C4BC6
:104360000022DA610A4B00221A62094B00225A62CB
:10437000074B00229A62064B0A22DA6204480AF0CE
:1043800001FF0346002B01D000F076FB00BF80BD8B
:1043900030480020003C004080B592B000AF07F1EB
:1043A000400300221A605A6007F1240300221A60B9
:1043B0005A609A60DA601A615A619A613B1D202244
:1043C000002118460DF0B8F94D4B4E4A1A604C4B7F
:1043D00002225A604A4B00229A60494B40F2CF7247
:1043E000DA60474B00221A61454B00225A61444B68
:1043F00000229A6142480BF0A7FC0346002B01D033
:1044000000F03AFB00233B6400237B6407F1400388
:1044100019463B480BF0F6FA0346002B01D000F09A
:104420002BFB60237B620023BB620023FB62002323
:104430003B6300237B630023BB630023FB6307F123
:104440002403002219462E480CF0E8F80346002BFE
:1044500001D000F011FB07F124030422194628487B
:104460000CF0DCF80346002B01D000F005FB07F14F
:1044700024030822194622480CF0D0F80346002BEA
:1044800001D000F0F9FA1E4B1B68DA691C4B1B685F
:1044900022F00802DA6107F124030C2219461848B9
:1044A0000CF0BCF80346002B01D000F0E5FA144BE9
:1044B0001B68DA69124B1B6822F40062DA61002380
:1044C0007B600023BB600023FB6000233B61002373
:1044D0007B614FF40053BB6100233B623B1D1946D7
:1044E00007480BF00BFB0346002B01D000F0C4FA89
:1044F000034803F0E3FC00BF4837BD4680BD00BF62
:10450000884800200000014080B58AB000AF07F164
:10451000200300221A605A603B1D00221A605A6074
:104520009A60DA601A615A619A61224B4FF08042B8
:104530001A60204B0B225A601E4B00229A601D4BC2
:1045400040F26442DA601B4B00221A61194B0022D0
:104550009A6118480BF0F8FB0346002B01D000F0DD
:104560008BFA20233B6200237B6207F1200319466C
:1045700010480BF047FA0346002B01D000F07CFAFC
:1045800060237B600023BB600023FB6000237B6112
:104590003B1D0022194607480CF040F80346002B4B
:1045A00001D000F069FA034803F088FC00BF283707
:1045B000BD4680BDD048002080B58CB000AF07F16B
:1045C0000C032422002118460DF0B6F83B1D0022F2
:1045D0001A605A60204B214A1A601F4B00225A6011
:1045E0001D4B00229A601C4B4FF6FF72DA601A4B8B
:1045F00000221A61184B00229A610323FB600023FA
:104600003B6101237B610023BB610023FB6102232B
:104610003B6201237B620023BB620023FB6207F144
:104620000C0319460C480BF0BDFD0346002B01D0CE
:1046300000F022FA00237B600023BB603B1D19467B
:1046400005480BF0DFF90346002B01D000F014FA07
:1046500000BF3037BD4680BD18490020000400402F
:1046600080B58CB000AF07F10C032422002118465E
:104670000DF062F83B1D00221A605A60204B214A5F
:104680001A601F4B00225A601D4B00229A601C4B7F
:104690004FF6FF72DA601A4B00221A61184B0022A3
:1046A0009A610323FB6000233B6101237B610023AC
:1046B000BB610023FB6100233B6201237B6200237B
:1046C000BB620023FB6207F10C0319460C480BF098
:1046D00069FD0346002B01D000F0CEF900237B607A
:1046E0000023BB603B1D194605480BF08BF90346C0
:1046F000002B01D000F0C0F900BF3037BD4680BDAF
:10470000604900200008004080B582B000AF3B4601
:1047100000221A605A60154B154A1A60134B0B227F
:104720005A60124B00229A60104B41F64B52DA60ED
:104730000E4B00229A610D480BF046FA0346002BFF
:1047400001D000F099F900233B6000237B603B46D9
:10475000194606480BF056F90346002B01D000F02D
:104760008BF900BF0837BD4680BD00BFA8490020B7
:104770000010004080B582B000AF3B4600221A60B6
:104780005A60154B154A1A60134B0B225A60124B94
:1047900000229A60104B40F2ED22DA600E4B0022AC
:1047A0009A610D480BF010FA0346002B01D000F07F
:1047B00063F900233B6000237B603B4619460648B3
:1047C0000BF020F90346002B01D000F055F900BF93
:1047D0000837BD4680BD00BFF049002000140040EE
:1047E00080B500AF114B124A1A60104B4FF4E13202
:1047F0005A600E4B00229A600C4B0022DA600B4B81
:1048000000221A61094B0C225A61084B00229A615E
:10481000064B0022DA6105480CF05FFA0346002BD4
:1048200001D000F029F900BF80BD00BF384A002048
:104830000050004080B582B000AF00237B600C4B7D
:104840001B6B0B4A43F480031363094B1B6B03F48C
:1048500080037B607B6800220021382008F033F859
:10486000382008F04CF800BF0837BD4680BD00BFB7
:104870000038024080B58AB000AF07F1140300226F
:104880001A605A609A60DA601A6100233B61564BE5
:104890001B6B554A43F004031363534B1B6B03F02C
:1048A00004033B613B690023FB604F4B1B6B4E4A8B
:1048B00043F0800313634C4B1B6B03F08003FB60DE
:1048C000FB680023BB60484B1B6B474A43F0010366
:1048D0001363454B1B6B03F00103BB60BB680023F4
:1048E0007B60414B1B6B404A43F0020313633E4B1A
:1048F0001B6B03F002037B607B6800233B603A4B39
:104900001B6B394A43F008031363374B1B6B03F0EF
:1049100008033B603B6800224FF44041334808F0F5
:1049200025FD012243F23001314808F01FFD01222C
:104930004FF480512F4808F019FD4FF40C537B6160
:104940000023BB610123FB6107F1140319462748CB
:1049500008F060FB4FF440437B610123BB610123FE
:10496000FB6100233B6207F1140319461F4808F05E
:1049700051FB02237B610023BB610123FB6107F133
:10498000140319461A4808F045FB04237B610023F1
:10499000BB610023FB6107F114031946144808F0BA
:1049A00039FB43F230037B610123BB610123FB61CF
:1049B00000233B6207F1140319460D4808F02AFB57
:1049C0004FF480537B610123BB610123FB61002312
:1049D0003B6207F114031946064808F01BFB00BFB1
:1049E0002837BD4680BD00BF0038024000080240A5
:1049F000000402400000024080B582B000AF786041
:104A00007B681B68074A934201D103F0C1FD7B68B4
:104A10001B68054A934201D103F07CFF00BF0837B1
:104A2000BD4680BD001000400014004080B582B03B
:104A300000AF7860FFF730F800BF0837BD4680BD93
:104A400080B586B000AFF860B9607A6000237B6102
:104A500009E0BB685A1CBA601B781846FFF7F4F9E6
:104A60007B6901337B617A697B689A42F1DB7B6801
:104A700018461837BD4680BD80B400AF72B600BF7F
:104A8000FEE7000080B582B000AF0123BB710123B7
:104A90007B710023FB714FF400510E4808F04EFC6F
:104AA0000346BB7102210C4808F048FC03467B71A9
:104AB000BB79002B02D1FB790133FB717B79002B91
:104AC00002D1FB790233FB71FB7918460837BD46EA
:104AD00080BD00BF000802400004024090B583B0D2
:104AE00000AF0023FB7100F08FF80346002B0CD0C1
:104AF0003F4B01221A703F4B1B683F4A13603F4BEC
:104B000000221A700323FB716DE0FFF7BBFF034621
:104B10001A463B4B1A70364B1B78012B0ED1354B86
:104B20001A68354B1B68D41A7820FEF7A7F903469C
:104B30009C4203DB2E4B00221A7054E0304B1B7852
:104B4000002B0ED02D4B1B78002B0AD12C4B1A7842
:104B50002C4B1A70294B01221A70264B1B68264ACF
:104B60001360264B1B78012B3DD1224B1A68224B38
:104B70001B68D41A2820FEF781F903469C4220DCEA
:104B80001C4B1A681C4B1B68D41A0A20FEF776F9D6
:104B900003469C4205DC1A4B1B78002B01D1642391
:104BA000FB71174B1A78174B1B789A420CD0144B99
:104BB0001B78002B08D00E4B01221A700323FB71C7
:104BC00002E0104B1B78FB71FB79002B0BD00B4BD9
:104BD00000221A70074B1B68074A1360FB79642B8D
:104BE00001D10023FB71FB7918460C37BD4690BDFF
:104BF0007D4A0020F4450020804A0020844A00209D
:104C0000854A0020864A002080B483B000AF00238C
:104C1000FB710D4B1B881A460B4B5B8813440A4AE9
:104C2000928A1344084AD28A13443B603B68B3F526
:104C3000FA5F01DA0123FB71FB7918460C37BD4698
:104C40005DF8047B704700BF5846002080B500AF78
:104C50000B4B1B78012B11D14FF41670FEF70EF998
:104C60000246084B1B689A4208DA074B1B7801334F
:104C7000DAB2054B1A70034B00221A6000BF80BDE8
:104C8000B2010020FC4500207C4A0020000000000A
:104C900080B582B000AF03460A46FB801346BB8056
:104CA000B7F90630002BB8BF5B429BB2092B1ED868
:104CB0006F4B1B6800225A636D4BDB6807EE903A1E
:104CC000F8EE677A17EE900AFBF706FC66A3D3E9C5
:104CD0000023FBF759FC02460B4610461946FBF72A
:104CE000EDFE03461AB2624B1B689A6348E0B7F9BF
:104CF0000630002B1EDD5E4B1B6800225A63B7F99D
:104D0000063007EE903AF8EEE77ADFED5A6A87EE62
:104D1000A67A574BDB6807EE903AF8EE677A67EEB3
:104D2000277AFDEEE77A17EE903A1AB2504B1B68DD
:104D30009A6325E0B7F90630002B21DAB7F906307F
:104D4000002BB8BF5B429BB207EE903AF8EEE77AD1
:104D5000DFED486A87EEA67A454BDB6807EE903AAE
:104D6000F8EE677A67EE277AFDEEE77A17EE903A6B
:104D70001AB23F4B1B685A633D4B1B6800229A6373
:104D8000B7F90430002BB8BF5B429BB2092B1ED889
:104D9000374BDB6807EE903AF8EE677A17EE900A29
:104DA000FBF79AFB30A3D3E90023FBF7EDFB0246A8
:104DB0000B4610461946FBF781FE03461AB22C4BF0
:104DC0001B681A642A4B1B680022DA6348E0B7F9B3
:104DD0000430002B1EDDB7F9043007EE903AF8EEF0
:104DE000E77ADFED246A87EEA67A214BDB6807EECF
:104DF000903AF8EE677A67EE277AFDEEE77A17EEDB
:104E0000903A1AB21A4B1B681A64194B1B6800229D
:104E1000DA6325E0B7F90430002B21DA144B1B6864
:104E200000221A64B7F90430002BB8BF5B429BB272
:104E300007EE903AF8EEE77ADFED0E6A87EEA67A93
:104E40000B4BDB6807EE903AF8EE677A67EE277A4D
:104E5000FDEEE77A17EE903A1AB2054B1B68DA635B
:104E600000BF0837BD4680BD7B14AE47E17A943F52
:104E70008848002000007A4490B585B000AF044611
:104E8000084611461A462346FB800346BB800B4664
:104E90007B8013463B80B7F90420B7F906301344F2
:104EA000002BB8BF5B42B3F57A7F0BDCB7F9042067
:104EB000B7F90630D31A002BB8BF5B42B3F57A7F3F
:104EC00040F3AA80B7F90430002BB8BF5B429AB216
:104ED000B7F90630002BB8BF5B429BB213449BB2BC
:104EE000A3F57A739BB2FB81B7F90630002B49DD3D
:104EF000B7F90430002B22DDBA88FB88D31A9AB2A6
:104F0000B7F90630B7F906100029B8BF494289B28F
:104F100093FBF1F399B2FB8911FB03F39BB2D31A14
:104F20009AB27B88D31A9AB23B88D31A9BB21AB230
:104F30004D4B1A804D4B4FF47A721A8086E04A4BE3
:104F40004FF618421A80BA88FB8813449AB2B7F910
:104F50000630B7F906100029B8BF494289B293FB61
:104F6000F1F399B2FB8911FB03F39BB213449AB29C
:104F70007B8813449AB23B8813449BB21AB23B4BD2
:104F80001A8063E0B7F90430002B22DD364B4FF472
:104F90007A721A80BA88FB8813449AB2B7F906303D
:104FA000B7F906100029B8BF494289B293FBF1F363
:104FB00099B2FB8911FB03F39BB213449AB27B882D
:104FC00013449AB23B8813449BB21AB2274B1A80FF
:104FD0003CE0BA88FB88D31A9AB2B7F90630B7F921
:104FE00006100029B8BF494289B293FBF1F399B288
:104FF000FB8911FB03F39BB2D31A9AB27B88D31AB5
:105000009AB23B88D31A9BB21AB2174B1A80174B2D
:105010004FF618421A8019E0BA88FB88D31A9AB260
:105020007B88D31A9AB23B88D31A9BB21AB20E4B22
:105030001A80BA88FB8813449AB27B8813449AB2C8
:105040003B8813449BB21AB2084B1A80074BB3F942
:105050000030054AB2F9002011461846FFF718FE45
:1050600000BF1437BD4690BD8A4A0020884A002000
:1050700080B483B000AF7860D7ED017A9FED087AF5
:1050800067EE877AFDEEE77A17EE903A1AB2054B93
:105090001A8000BF0C37BD465DF8047B704700BF27
:1050A000C74B70428C4A002080B483B000AF786058
:1050B000044A7B68136000BF0C37BD465DF8047B73
:1050C000704700BF944A002080B483B000AF78607E
:1050D000044A7B68136000BF0C37BD465DF8047B53
:1050E000704700BF904A0020B0B588B000AFCC4BED
:1050F0001B88002B00F0DF80CA4B5B891846FBF74A
:10510000D9F904460D46C74B1B891846FBF7D2F95F
:10511000B9A3D3E90023FBF737FA02460B46204632
:105120002946FBF77BF802460B4614461D46BD4B4D
:10513000DB881846FBF7BEF9B1A3D3E90023FBF7E0
:1051400023FA02460B4620462946FBF767F802463B
:105150000B4614461D46B34B9B881846FBF7AAF92D
:10516000A7A3D3E90023FBF70FFA02460B4620461C
:105170002946FBF753F802460B4614461D46A94B39
:105180005B881846FBF796F99FA3D3E90023FBF74A
:10519000FBF902460B4620462946FBF73FF802463C
:1051A0000B4614461D469F4B1B881846FBF782F999
:1051B00093A3D3E90023FBF7E7F902460B46204609
:1051C0002946FBF72BF802460B4610461946FBF71B
:1051D00075FC0346BB61934B9B891846FBF76AF944
:1051E00004460D468F4BDB891846FBF763F982A313
:1051F000D3E90023FBF7C8F902460B4620462946AF
:10520000FBF70CF802460B4614461D46854B1B8ADD
:105210001846FBF74FF97AA3D3E90023FBF7B4F95B
:1052200002460B4620462946FAF7F8FF02460B468F
:1052300014461D467B4B5B8A1846FBF73BF970A36F
:10524000D3E90023FBF7A0F902460B462046294686
:10525000FAF7E4FF02460B4614461D46714B9B8A43
:105260001846FBF727F968A3D3E90023FBF78CF96D
:1052700002460B4620462946FAF7D0FF02460B4667
:1052800014461D46674BDB8A1846FBF713F95CA3EF
:10529000D3E90023FBF778F902460B46204629465E
:1052A000FAF7BCFF02460B4610461946FBF706FC10
:1052B00003467B6169E05C4BDB881846FBF7FAF834
:1052C0004FF00002594BFBF75FF902460B461446BC
:1052D0001D46554B1B891846FBF7ECF84CA3D3E948
:1052E0000023FBF751F902460B4620462946FAF700
:1052F00095FF02460B4614461D464B4B5B891846EC
:10530000FBF7D8F802460B4620462946FAF786FFF7
:1053100002460B4610461946FBF7D0FB0346BB611D
:10532000414B1B8A1846FBF7C5F84FF000023F4B74
:10533000FBF72AF902460B4614461D463A4BDB8919
:105340001846FBF7B7F832A3D3E90023FBF71CF9A3
:1053500002460B4620462946FAF760FF02460B46F6
:1053600014461D46304B9B891846FBF7A3F80246AE
:105370000B4620462946FAF751FF02460B461046D7
:105380001946FBF79BFB03467B61BA697B69D31A1D
:105390003B61274B9B681846FBF79EF804460D4679
:1053A0003B6907EE903AF8EEE77A17EE900AFBF7C2
:1053B00093F819A3D3E90023FBF7E6F802460B465E
:1053C00020462946FAF72AFF02460B4610461946A0
:1053D000FBF7BCFB0346164A9360154BD3ED027AEC
:1053E0009FED147AF4EEC77AF1EE10FA26DD104B39
:1053F000114A9A602FE000BF333333333333E33F36
:105400009A9999999999C93F9A9999999999B93F6E
:105410009A9999999999E93FFCA9F1D24D62503F27
:105420007846002058460020404600200000E03F1B
:105430003C00002000401C4600401C462A4BD3ED97
:10544000027A9FED2A7AF4EEC77AF1EE10FA02D5CD
:10545000254B274A9A60274B1B683A69D31A5B0091
:10546000FB60214BB3F900301A463B6902FB03F3A2
:10547000BB601D4BB3F9023007EE903AB8EEE77A05
:10548000194BD3ED027A67EE277AFDEEE77A17EE35
:10549000903A7B60144BB3F904301A46FB6802FB68
:1054A00003F33B60BA687B6813443A681344FB61BA
:1054B000FB699B11FB61FB69B3F5617F02DD4FF472
:1054C0006173FB61FB6913F5617F01DA0A4BFB61D4
:1054D000FB691AB2044B9A81064A3B69136000BF0C
:1054E0002037BD46B0BD00BF3C00002000401CC6B8
:1054F00000401CC6984A00207CFCFFFF0000000012
:10550000B0B586B000AF464BB3F900301A46454BF4
:10551000B3F90030D31A3B61414BB3F90020424B41
:10552000B3F900309A4203D0404B4FF000029A602A
:105530003E4B9B681846FAF7CFFF04460D463B6981
:1055400007EE903AF8EEE77A17EE900AFAF7C4FF02
:1055500031A3D3E90023FBF717F802460B46204698
:105560002946FAF75BFE02460B4610461946FBF742
:10557000EDFA03462D4A93602D4BB3F900301A46DD
:105580003B699B1AFB60294BB3F900301A463B6913
:1055900002FB03F3BB60254BB3F9023007EE903AF0
:1055A000B8EEE77A214BD3ED027A67EE277AFDEE6B
:1055B000E77A17EE903A7B601C4BB3F904301A4639
:1055C000FB6802FB03F33B60BA687B6813443A68EC
:1055D00013447B617B695B107B617B69B3F5617F01
:1055E00002DD4FF461737B617B6913F5617F01DA42
:1055F000104B7B617B691AB20C4B9A813B691AB2E2
:105600000B4B1A80064BB3F90020074B1A8000BFE2
:105610001837BD46B0BD00BFFCA9F1D24D62503F66
:105620008C4A0020EA4500209C4A00204C000020C3
:105630009E4A00207CFCFFFFB0B586B000AF524B05
:1056400093ED057A514BD3ED007A77EE677AB3EE9E
:10565000047A67EE877AC7ED047A4D4B9B6818464B
:10566000FAF73AFF04460D463869FAF735FF44A3C6
:10567000D3E90023FAF788FF02460B462046294665
:10568000FAF7CCFD02460B4610461946FBF75EFAC8
:1056900003463F4A93603D4B93ED007A3D4BD3ED7B
:1056A000007AB4EE677AF1EE10FA03D0384B4FF07F
:1056B00000029A60384BD3ED007A97ED047A77EECA
:1056C000677A77EEA77AC7ED037A314BB3F90030EA
:1056D00007EE903AF8EEE77A97ED047A67EE277ACC
:1056E000C7ED027A2A4BB3F9023007EE903AB8EED2
:1056F000E77A274BD3ED027A67EE277AC7ED017A76
:10570000234BB3F9043007EE903AF8EEE77A97EDC1
:10571000037A67EE277AC7ED007AD7ED027AFDEEBD
:10572000E77AB8EEE77AD7ED017A37EE277AD7ED48
:10573000007A77EE277AFDEEE77A17EE903A7B61F2
:105740007B699B107B617B69B3F5617F02DD4FF460
:1057500061737B617B6913F5617F01DA0F4B7B61BC
:105760007B691AB20A4B9A810B4A3B691360074B5B
:105770001B68084A136000BF1837BD46B0BD00BFA4
:105780007B14AE47E17A743F50010020944A002018
:105790005C000020A04A0020A44A00207CFCFFFFFF
:1057A000B0B586B000AF524B93ED087A514BD3EDB4
:1057B000007A77EE677AB3EE047A67EE877AC7ED00
:1057C000047A4D4B9B681846FAF786FE04460D4650
:1057D0003869FAF781FE44A3D3E90023FAF7D4FE2F
:1057E00002460B4620462946FAF718FD02460B46AC
:1057F00010461946FBF7AAF903463F4A93603D4B12
:1058000093ED007A3D4BD3ED007AB4EE677AF1EE7A
:1058100010FA03D0384B4FF000029A60384BD3EDAA
:10582000007A97ED047A77EE677AC7ED037A324B08
:10583000B3F9003007EE903AF8EEE77A97ED047A84
:1058400067EE277AC7ED027A2B4BB3F9023007EEE9
:10585000903AB8EEE77A284BD3ED027A67EE277AD2
:10586000C7ED017A244BB3F9043007EE903AF8EE15
:10587000E77A97ED037A67EE277AC7ED007AD7EDDE
:10588000027AFDEEE77AB8EEE77AD7ED017A37EEE5
:10589000277AD7ED007A77EE277AFDEEE77A17EED2
:1058A000903A7B617B699B107B617B69B3F5617F7B
:1058B00002DD4FF461737B617B6913F5617F01DA6F
:1058C000104B7B617B691AB20B4B9A810C4A3B6986
:1058D0001360084B1B68094A136000BF1837BD46A8
:1058E000B0BD00BFAFF300807B14AE47E17A743FD8
:1058F00050010020904A00206C000020A84A00209F
:10590000AC4A00207CFCFFFF80B584B000AF0022D1
:105910002D492E4804F04CFF4FF400712C4807F03D
:105920000DFD0346002B44D12A4B01221A702A4850
:105930000CF070F83A1D3B461946234805F0B8FDB7
:105940007B689B69023B7A68528902FB03F3184625
:10595000FAF7A0FD4FF00002204BFAF715FE0246C1
:105960000B4610461946FBF7D1F80346FB60F96871
:105970001B480BF0C9FF7B685B891A463B6802FB3A
:1059800003F31846FAF786FD4FF00002134BFAF7BF
:10599000FBFD02460B4610461946FBF7B7F80346D7
:1059A000BB60B9680F480BF0AFFF00F0ADF9012301
:1059B00006E0084B00221A700B480CF02BF800236D
:1059C00018461037BD4680BDFC3B0108B04A002098
:1059D0000008024076010020003C01080000E03F82
:1059E000243C0108343C01084C3C010880B598B0C7
:1059F00000AF0023A7F85E3007F12403544918468E
:105A000005F080FC07F10C0207F12403114618464B
:105A100005F011FD7B7D002B15D007F10C03093338
:105A20004C4918460CF088FAB865B86D0BF03FFE8B
:105A30000246B7F85E309A4205DDB86D0BF037FECE
:105A40000346A7F85E307B7D002BDBD107F12403F2
:105A5000184605F0CAFCB7F85E30002B03D10123CD
:105A6000A7F85E3004E0B7F85E300133A7F85E3087
:105A7000B7F85E203B46384918460CF09FF93B4684
:105A80001846FBF735FA03461A463B461344334A99
:105A90001068186012791A713B4612221946304874
:105AA00004F0CCFE034687F857302B492D4800F010
:105AB0008DF929492C4800F089F927492B4800F035
:105AC00085F925492A4800F081F92349294800F041
:105AD0007DF92149284800F079F91F49274800F04D
